{
  "contractName": "ANKTPresale",
  "abi": [
    {
      "anonymous": false,
      "inputs": [
        {
          "indexed": true,
          "internalType": "address",
          "name": "_walletAddress",
          "type": "address"
        },
        {
          "indexed": false,
          "internalType": "uint256",
          "name": "_tokensEarned",
          "type": "uint256"
        }
      ],
      "name": "APconvertedEvent",
      "type": "event"
    },
    {
      "anonymous": false,
      "inputs": [
        {
          "indexed": true,
          "internalType": "address",
          "name": "previousOwner",
          "type": "address"
        },
        {
          "indexed": true,
          "internalType": "address",
          "name": "newOwner",
          "type": "address"
        }
      ],
      "name": "OwnershipTransferred",
      "type": "event"
    },
    {
      "anonymous": false,
      "inputs": [
        {
          "indexed": false,
          "internalType": "address",
          "name": "account",
          "type": "address"
        }
      ],
      "name": "Paused",
      "type": "event"
    },
    {
      "anonymous": false,
      "inputs": [
        {
          "indexed": false,
          "internalType": "string",
          "name": "_inviteeUserName",
          "type": "string"
        },
        {
          "indexed": true,
          "internalType": "address",
          "name": "_inviteeWalletAddress",
          "type": "address"
        },
        {
          "indexed": false,
          "internalType": "uint256",
          "name": "_inviteeTokensPurchased",
          "type": "uint256"
        },
        {
          "indexed": false,
          "internalType": "string",
          "name": "_inviterUserName",
          "type": "string"
        },
        {
          "indexed": true,
          "internalType": "address",
          "name": "_inviterWalletAddress",
          "type": "address"
        },
        {
          "indexed": false,
          "internalType": "uint256",
          "name": "_inviterTokensEarned",
          "type": "uint256"
        }
      ],
      "name": "ReferralCreatedEvent",
      "type": "event"
    },
    {
      "anonymous": false,
      "inputs": [
        {
          "indexed": false,
          "internalType": "address",
          "name": "account",
          "type": "address"
        }
      ],
      "name": "Unpaused",
      "type": "event"
    },
    {
      "inputs": [],
      "name": "MAX_ANKT_AP_CONVERSION_PER_PERSON",
      "outputs": [
        {
          "internalType": "uint256",
          "name": "",
          "type": "uint256"
        }
      ],
      "stateMutability": "view",
      "type": "function",
      "constant": true
    },
    {
      "inputs": [],
      "name": "MAX_ANKT_CAP",
      "outputs": [
        {
          "internalType": "uint256",
          "name": "",
          "type": "uint256"
        }
      ],
      "stateMutability": "view",
      "type": "function",
      "constant": true
    },
    {
      "inputs": [],
      "name": "PURCHASE_ANKT_TOKENS",
      "outputs": [
        {
          "internalType": "uint256",
          "name": "",
          "type": "uint256"
        }
      ],
      "stateMutability": "view",
      "type": "function",
      "constant": true
    },
    {
      "inputs": [],
      "name": "REFERRAL_ANKT_TOKENS",
      "outputs": [
        {
          "internalType": "uint256",
          "name": "",
          "type": "uint256"
        }
      ],
      "stateMutability": "view",
      "type": "function",
      "constant": true
    },
    {
      "inputs": [],
      "name": "depositAmount",
      "outputs": [
        {
          "internalType": "uint256",
          "name": "",
          "type": "uint256"
        }
      ],
      "stateMutability": "view",
      "type": "function",
      "constant": true
    },
    {
      "inputs": [],
      "name": "owner",
      "outputs": [
        {
          "internalType": "address",
          "name": "",
          "type": "address"
        }
      ],
      "stateMutability": "view",
      "type": "function",
      "constant": true
    },
    {
      "inputs": [],
      "name": "paused",
      "outputs": [
        {
          "internalType": "bool",
          "name": "",
          "type": "bool"
        }
      ],
      "stateMutability": "view",
      "type": "function",
      "constant": true
    },
    {
      "inputs": [],
      "name": "renounceOwnership",
      "outputs": [],
      "stateMutability": "nonpayable",
      "type": "function"
    },
    {
      "inputs": [],
      "name": "safeAddress",
      "outputs": [
        {
          "internalType": "address",
          "name": "",
          "type": "address"
        }
      ],
      "stateMutability": "view",
      "type": "function",
      "constant": true
    },
    {
      "inputs": [],
      "name": "total_ankt_purchased",
      "outputs": [
        {
          "internalType": "uint256",
          "name": "",
          "type": "uint256"
        }
      ],
      "stateMutability": "view",
      "type": "function",
      "constant": true
    },
    {
      "inputs": [
        {
          "internalType": "address",
          "name": "newOwner",
          "type": "address"
        }
      ],
      "name": "transferOwnership",
      "outputs": [],
      "stateMutability": "nonpayable",
      "type": "function"
    },
    {
      "inputs": [],
      "name": "usdtAddress",
      "outputs": [
        {
          "internalType": "contract IERC20Upgradeable",
          "name": "",
          "type": "address"
        }
      ],
      "stateMutability": "view",
      "type": "function",
      "constant": true
    },
    {
      "inputs": [],
      "name": "pause",
      "outputs": [],
      "stateMutability": "nonpayable",
      "type": "function"
    },
    {
      "inputs": [],
      "name": "unpause",
      "outputs": [],
      "stateMutability": "nonpayable",
      "type": "function"
    },
    {
      "inputs": [
        {
          "internalType": "address",
          "name": "safedepositAddress_",
          "type": "address"
        },
        {
          "internalType": "address",
          "name": "usdtAddress_",
          "type": "address"
        }
      ],
      "name": "initialize",
      "outputs": [],
      "stateMutability": "nonpayable",
      "type": "function"
    },
    {
      "inputs": [
        {
          "internalType": "string",
          "name": "_userName",
          "type": "string"
        },
        {
          "internalType": "string",
          "name": "_inviterUserName",
          "type": "string"
        },
        {
          "internalType": "address",
          "name": "_inviterWalletAddress",
          "type": "address"
        }
      ],
      "name": "tokenDeposit",
      "outputs": [
        {
          "internalType": "bool",
          "name": "",
          "type": "bool"
        }
      ],
      "stateMutability": "nonpayable",
      "type": "function"
    },
    {
      "inputs": [],
      "name": "withdraw",
      "outputs": [],
      "stateMutability": "nonpayable",
      "type": "function"
    },
    {
      "inputs": [
        {
          "internalType": "address",
          "name": "userAddress",
          "type": "address"
        }
      ],
      "name": "getTransactions",
      "outputs": [
        {
          "internalType": "bool",
          "name": "",
          "type": "bool"
        }
      ],
      "stateMutability": "view",
      "type": "function",
      "constant": true
    },
    {
      "inputs": [],
      "name": "contractBalance",
      "outputs": [
        {
          "internalType": "uint256",
          "name": "",
          "type": "uint256"
        }
      ],
      "stateMutability": "view",
      "type": "function",
      "constant": true
    },
    {
      "inputs": [
        {
          "internalType": "address[]",
          "name": "listofAddresses",
          "type": "address[]"
        },
        {
          "internalType": "uint256[]",
          "name": "APPoints",
          "type": "uint256[]"
        }
      ],
      "name": "convertAPtoANKT",
      "outputs": [
        {
          "internalType": "bool",
          "name": "",
          "type": "bool"
        }
      ],
      "stateMutability": "nonpayable",
      "type": "function"
    },
    {
      "inputs": [],
      "name": "getUserReferralSummary",
      "outputs": [
        {
          "components": [
            {
              "internalType": "uint256",
              "name": "timestamp",
              "type": "uint256"
            },
            {
              "internalType": "string",
              "name": "userName",
              "type": "string"
            },
            {
              "internalType": "address",
              "name": "walletAddress",
              "type": "address"
            },
            {
              "internalType": "uint256",
              "name": "tokensEarned",
              "type": "uint256"
            }
          ],
          "internalType": "struct ANKTPresale.ReferralSummary[]",
          "name": "summary",
          "type": "tuple[]"
        }
      ],
      "stateMutability": "view",
      "type": "function",
      "constant": true
    },
    {
      "inputs": [],
      "name": "getUserANKTBalance",
      "outputs": [
        {
          "internalType": "uint256",
          "name": "",
          "type": "uint256"
        }
      ],
      "stateMutability": "view",
      "type": "function",
      "constant": true
    },
    {
      "inputs": [],
      "name": "getUserReferralDetails",
      "outputs": [
        {
          "components": [
            {
              "internalType": "string",
              "name": "userName",
              "type": "string"
            },
            {
              "internalType": "address",
              "name": "walletAddress",
              "type": "address"
            },
            {
              "internalType": "uint256",
              "name": "totalReferralCount",
              "type": "uint256"
            },
            {
              "internalType": "uint256",
              "name": "tokensPurchased",
              "type": "uint256"
            },
            {
              "internalType": "uint256",
              "name": "tokensEarned",
              "type": "uint256"
            },
            {
              "internalType": "bool",
              "name": "apconverted",
              "type": "bool"
            },
            {
              "components": [
                {
                  "internalType": "uint256",
                  "name": "timestamp",
                  "type": "uint256"
                },
                {
                  "internalType": "string",
                  "name": "userName",
                  "type": "string"
                },
                {
                  "internalType": "address",
                  "name": "walletAddress",
                  "type": "address"
                },
                {
                  "internalType": "uint256",
                  "name": "tokensEarned",
                  "type": "uint256"
                }
              ],
              "internalType": "struct ANKTPresale.ReferralSummary[]",
              "name": "referralHistory",
              "type": "tuple[]"
            }
          ],
          "internalType": "struct ANKTPresale.ReferralDetails",
          "name": "refDetails",
          "type": "tuple"
        }
      ],
      "stateMutability": "view",
      "type": "function",
      "constant": true
    }
  ],
  "bytecode": "0x608060405234801561001057600080fd5b50614305806100206000396000f3fe608060405234801561001057600080fd5b506004361061014d5760003560e01c80638456cb59116100c3578063b419191f1161007c578063b419191f14610334578063b7b6c14914610352578063b93f14aa14610370578063db82f7cf1461038e578063e124bae1146103ac578063f2fde38b146103ca5761014d565b80638456cb59146102945780638b7afe2e1461029e5780638da5cb5b146102bc57806394a8cc51146102da5780639ab4a445146102f8578063a5d0a85d146103165761014d565b80634db802e8116101155780634db802e8146101d05780635578110c146101ee578063575dbd641461020c5780635c975abb1461023c578063715018a61461025a5780637dfdbbe5146102645761014d565b80630f8cda20146101525780633ccfd60b146101825780633f4ba83a1461018c578063419759f514610196578063485cc955146101b4575b600080fd5b61016c60048036038101906101679190612a76565b6103e6565b6040516101799190612abe565b60405180910390f35b61018a61043f565b005b61019461061b565b005b61019e6106a1565b6040516101ab9190612af2565b60405180910390f35b6101ce60048036038101906101c99190612b0d565b6106a8565b005b6101d861090e565b6040516101e59190612ddb565b60405180910390f35b6101f6610be1565b6040516102039190612e0c565b60405180910390f35b61022660048036038101906102219190612f5c565b610c07565b6040516102339190612abe565b60405180910390f35b610244611218565b6040516102519190612abe565b60405180910390f35b61026261122f565b005b61027e6004803603810190610279919061319e565b6112b7565b60405161028b9190612abe565b60405180910390f35b61029c6119fa565b005b6102a6611a80565b6040516102b39190612af2565b60405180910390f35b6102c4611b23565b6040516102d19190612e0c565b60405180910390f35b6102e2611b4d565b6040516102ef9190612af2565b60405180910390f35b610300611b5a565b60405161030d9190613275565b60405180910390f35b61031e611b80565b60405161032b9190613316565b60405180910390f35b61033c611d1b565b6040516103499190612af2565b60405180910390f35b61035a611d28565b6040516103679190612af2565b60405180910390f35b610378611d2e565b6040516103859190612af2565b60405180910390f35b610396611d3a565b6040516103a39190612af2565b60405180910390f35b6103b4611d49565b6040516103c19190612af2565b60405180910390f35b6103e460048036038101906103df9190612a76565b611de0565b005b600060cd60008373ffffffffffffffffffffffffffffffffffffffff1673ffffffffffffffffffffffffffffffffffffffff16815260200190815260200160002060030160009054906101000a900460ff169050919050565b610447611ed7565b73ffffffffffffffffffffffffffffffffffffffff16610465611b23565b73ffffffffffffffffffffffffffffffffffffffff16146104bb576040517f08c379a00000000000000000000000000000000000000000000000000000000081526004016104b290613395565b60405180910390fd5b60ca60009054906101000a900473ffffffffffffffffffffffffffffffffffffffff1673ffffffffffffffffffffffffffffffffffffffff1663a9059cbb60cb60009054906101000a900473ffffffffffffffffffffffffffffffffffffffff1660ca60009054906101000a900473ffffffffffffffffffffffffffffffffffffffff1673ffffffffffffffffffffffffffffffffffffffff166370a08231306040518263ffffffff1660e01b81526004016105779190612e0c565b602060405180830381865afa158015610594573d6000803e3d6000fd5b505050506040513d601f19601f820116820180604052508101906105b891906133ca565b6040518363ffffffff1660e01b81526004016105d59291906133f7565b6020604051808303816000875af11580156105f4573d6000803e3d6000fd5b505050506040513d601f19601f82011682018060405250810190610618919061344c565b50565b610623611ed7565b73ffffffffffffffffffffffffffffffffffffffff16610641611b23565b73ffffffffffffffffffffffffffffffffffffffff1614610697576040517f08c379a000000000000000000000000000000000000000000000000000000000815260040161068e90613395565b60405180910390fd5b61069f611edf565b565b624c4b4081565b600060019054906101000a900460ff166106d05760008054906101000a900460ff16156106d9565b6106d8611f81565b5b610718576040517f08c379a000000000000000000000000000000000000000000000000000000000815260040161070f906134eb565b60405180910390fd5b60008060019054906101000a900460ff161590508015610768576001600060016101000a81548160ff02191690831515021790555060016000806101000a81548160ff0219169083151502179055505b610770611f92565b610778611fe3565b61078061203c565b610788612095565b600073ffffffffffffffffffffffffffffffffffffffff168373ffffffffffffffffffffffffffffffffffffffff16036107f7576040517f08c379a00000000000000000000000000000000000000000000000000000000081526004016107ee9061357d565b60405180910390fd5b600073ffffffffffffffffffffffffffffffffffffffff168273ffffffffffffffffffffffffffffffffffffffff1603610866576040517f08c379a000000000000000000000000000000000000000000000000000000000815260040161085d9061360f565b60405180910390fd5b8260cb60006101000a81548173ffffffffffffffffffffffffffffffffffffffff021916908373ffffffffffffffffffffffffffffffffffffffff1602179055508160ca60006101000a81548173ffffffffffffffffffffffffffffffffffffffff021916908373ffffffffffffffffffffffffffffffffffffffff16021790555080156109095760008060016101000a81548160ff0219169083151502179055505b505050565b61091661290c565b60cc60003373ffffffffffffffffffffffffffffffffffffffff1673ffffffffffffffffffffffffffffffffffffffff1681526020019081526020016000206040518060e00160405290816000820180546109709061365e565b80601f016020809104026020016040519081016040528092919081815260200182805461099c9061365e565b80156109e95780601f106109be576101008083540402835291602001916109e9565b820191906000526020600020905b8154815290600101906020018083116109cc57829003601f168201915b505050505081526020016001820160009054906101000a900473ffffffffffffffffffffffffffffffffffffffff1673ffffffffffffffffffffffffffffffffffffffff1673ffffffffffffffffffffffffffffffffffffffff1681526020016002820154815260200160038201548152602001600482015481526020016005820160009054906101000a900460ff1615151515815260200160068201805480602002602001604051908101604052809291908181526020016000905b82821015610bd4578382906000526020600020906004020160405180608001604052908160008201548152602001600182018054610ae39061365e565b80601f0160208091040260200160405190810160405280929190818152602001828054610b0f9061365e565b8015610b5c5780601f10610b3157610100808354040283529160200191610b5c565b820191906000526020600020905b815481529060010190602001808311610b3f57829003601f168201915b505050505081526020016002820160009054906101000a900473ffffffffffffffffffffffffffffffffffffffff1673ffffffffffffffffffffffffffffffffffffffff1673ffffffffffffffffffffffffffffffffffffffff16815260200160038201548152505081526020019060010190610aa6565b5050505081525050905090565b60cb60009054906101000a900473ffffffffffffffffffffffffffffffffffffffff1681565b6000610c11611218565b15610c51576040517f08c379a0000000000000000000000000000000000000000000000000000000008152600401610c48906136db565b60405180910390fd5b600260975403610c96576040517f08c379a0000000000000000000000000000000000000000000000000000000008152600401610c8d90613747565b60405180910390fd5b6002609781905550624c4b4060ca60009054906101000a900473ffffffffffffffffffffffffffffffffffffffff1673ffffffffffffffffffffffffffffffffffffffff166370a08231336040518263ffffffff1660e01b8152600401610cfd9190612e0c565b602060405180830381865afa158015610d1a573d6000803e3d6000fd5b505050506040513d601f19601f82011682018060405250810190610d3e91906133ca565b1015610d7f576040517f08c379a0000000000000000000000000000000000000000000000000000000008152600401610d76906137d9565b60405180910390fd5b624c4b4060ca60009054906101000a900473ffffffffffffffffffffffffffffffffffffffff1673ffffffffffffffffffffffffffffffffffffffff1663dd62ed3e33306040518363ffffffff1660e01b8152600401610de09291906137f9565b602060405180830381865afa158015610dfd573d6000803e3d6000fd5b505050506040513d601f19601f82011682018060405250810190610e2191906133ca565b1015610e62576040517f08c379a0000000000000000000000000000000000000000000000000000000008152600401610e59906138ba565b60405180910390fd5b60cd60003373ffffffffffffffffffffffffffffffffffffffff1673ffffffffffffffffffffffffffffffffffffffff16815260200190815260200160002060030160009054906101000a900460ff1615610ef2576040517f08c379a0000000000000000000000000000000000000000000000000000000008152600401610ee99061394c565b60405180910390fd5b6a04f46e8cf803d713c0000060c9541115610f42576040517f08c379a0000000000000000000000000000000000000000000000000000000008152600401610f39906139de565b60405180910390fd5b3360cd60003373ffffffffffffffffffffffffffffffffffffffff1673ffffffffffffffffffffffffffffffffffffffff16815260200190815260200160002060000160006101000a81548173ffffffffffffffffffffffffffffffffffffffff021916908373ffffffffffffffffffffffffffffffffffffffff160217905550624c4b4060cd60003373ffffffffffffffffffffffffffffffffffffffff1673ffffffffffffffffffffffffffffffffffffffff16815260200190815260200160002060010160008282546110189190613a2d565b925050819055504260cd60003373ffffffffffffffffffffffffffffffffffffffff1673ffffffffffffffffffffffffffffffffffffffff16815260200190815260200160002060020181905550600160cd60003373ffffffffffffffffffffffffffffffffffffffff1673ffffffffffffffffffffffffffffffffffffffff16815260200190815260200160002060030160006101000a81548160ff02191690831515021790555060006110ce8585856120ee565b905080611110576040517f08c379a000000000000000000000000000000000000000000000000000000000815260040161110790613af5565b60405180910390fd5b60ca60009054906101000a900473ffffffffffffffffffffffffffffffffffffffff1673ffffffffffffffffffffffffffffffffffffffff166323b872dd3330624c4b406040518463ffffffff1660e01b815260040161117293929190613b15565b6020604051808303816000875af1158015611191573d6000803e3d6000fd5b505050506040513d601f19601f820116820180604052508101906111b5919061344c565b5060cd60003373ffffffffffffffffffffffffffffffffffffffff1673ffffffffffffffffffffffffffffffffffffffff16815260200190815260200160002060030160009054906101000a900460ff1691505060016097819055509392505050565b6000606560009054906101000a900460ff16905090565b611237611ed7565b73ffffffffffffffffffffffffffffffffffffffff16611255611b23565b73ffffffffffffffffffffffffffffffffffffffff16146112ab576040517f08c379a00000000000000000000000000000000000000000000000000000000081526004016112a290613395565b60405180910390fd5b6112b5600061262e565b565b60006112c1611ed7565b73ffffffffffffffffffffffffffffffffffffffff166112df611b23565b73ffffffffffffffffffffffffffffffffffffffff1614611335576040517f08c379a000000000000000000000000000000000000000000000000000000000815260040161132c90613395565b60405180910390fd5b6000835111611379576040517f08c379a000000000000000000000000000000000000000000000000000000000815260040161137090613bbe565b60405180910390fd5b60008251116113bd576040517f08c379a00000000000000000000000000000000000000000000000000000000081526004016113b490613c50565b60405180910390fd5b8151835114611401576040517f08c379a00000000000000000000000000000000000000000000000000000000081526004016113f890613d08565b60405180910390fd5b6096835110611445576040517f08c379a000000000000000000000000000000000000000000000000000000000815260040161143c90613d9a565b60405180910390fd5b60005b83518110156119ef5760005b83518110156119db578082036119c857600073ffffffffffffffffffffffffffffffffffffffff1685838151811061148f5761148e613dba565b5b602002602001015173ffffffffffffffffffffffffffffffffffffffff16036114ed576040517f08c379a00000000000000000000000000000000000000000000000000000000081526004016114e490613e5b565b60405180910390fd5b60cc600086848151811061150457611503613dba565b5b602002602001015173ffffffffffffffffffffffffffffffffffffffff1673ffffffffffffffffffffffffffffffffffffffff16815260200190815260200160002060050160009054906101000a900460ff1615611597576040517f08c379a000000000000000000000000000000000000000000000000000000000815260040161158e90613eed565b60405180910390fd5b68a2a15d09519be000008482815181106115b4576115b3613dba565b5b602002602001015111156115fd576040517f08c379a00000000000000000000000000000000000000000000000000000000081526004016115f490613f59565b60405180910390fd5b600061162485838151811061161557611614613dba565b5b602002602001015160046126f4565b90508060cc600088868151811061163e5761163d613dba565b5b602002602001015173ffffffffffffffffffffffffffffffffffffffff1673ffffffffffffffffffffffffffffffffffffffff16815260200190815260200160002060040160008282546116929190613a2d565b925050819055508583815181106116ac576116ab613dba565b5b602002602001015160cc60008886815181106116cb576116ca613dba565b5b602002602001015173ffffffffffffffffffffffffffffffffffffffff1673ffffffffffffffffffffffffffffffffffffffff16815260200190815260200160002060010160006101000a81548173ffffffffffffffffffffffffffffffffffffffff021916908373ffffffffffffffffffffffffffffffffffffffff160217905550600160cc600088868151811061176757611766613dba565b5b602002602001015173ffffffffffffffffffffffffffffffffffffffff1673ffffffffffffffffffffffffffffffffffffffff16815260200190815260200160002060050160006101000a81548160ff02191690831515021790555060cc60008785815181106117da576117d9613dba565b5b602002602001015173ffffffffffffffffffffffffffffffffffffffff1673ffffffffffffffffffffffffffffffffffffffff16815260200190815260200160002060060160405180608001604052804281526020016040518060400160405280600881526020017f4150746f414e4b54000000000000000000000000000000000000000000000000815250815260200188868151811061187e5761187d613dba565b5b602002602001015173ffffffffffffffffffffffffffffffffffffffff1681526020018381525090806001815401808255809150506001900390600052602060002090600402016000909190919091506000820151816000015560208201518160010190805190602001906118f4929190612961565b5060408201518160020160006101000a81548173ffffffffffffffffffffffffffffffffffffffff021916908373ffffffffffffffffffffffffffffffffffffffff16021790555060608201518160030155505061195460c9548261270a565b60c98190555085838151811061196d5761196c613dba565b5b602002602001015173ffffffffffffffffffffffffffffffffffffffff167fbff0ba221b5a2223be12bb47aeabbfca224abe8c7c090c231d739629589f0be3826040516119ba9190612af2565b60405180910390a2506119db565b80806119d390613f79565b915050611454565b5080806119e790613f79565b915050611448565b506001905092915050565b611a02611ed7565b73ffffffffffffffffffffffffffffffffffffffff16611a20611b23565b73ffffffffffffffffffffffffffffffffffffffff1614611a76576040517f08c379a0000000000000000000000000000000000000000000000000000000008152600401611a6d90613395565b60405180910390fd5b611a7e612720565b565b600060ca60009054906101000a900473ffffffffffffffffffffffffffffffffffffffff1673ffffffffffffffffffffffffffffffffffffffff166370a08231306040518263ffffffff1660e01b8152600401611add9190612e0c565b602060405180830381865afa158015611afa573d6000803e3d6000fd5b505050506040513d601f19601f82011682018060405250810190611b1e91906133ca565b905090565b6000603360009054906101000a900473ffffffffffffffffffffffffffffffffffffffff16905090565b68a2a15d09519be0000081565b60ca60009054906101000a900473ffffffffffffffffffffffffffffffffffffffff1681565b606060cc60003373ffffffffffffffffffffffffffffffffffffffff1673ffffffffffffffffffffffffffffffffffffffff168152602001908152602001600020600601805480602002602001604051908101604052809291908181526020016000905b82821015611d12578382906000526020600020906004020160405180608001604052908160008201548152602001600182018054611c219061365e565b80601f0160208091040260200160405190810160405280929190818152602001828054611c4d9061365e565b8015611c9a5780601f10611c6f57610100808354040283529160200191611c9a565b820191906000526020600020905b815481529060010190602001808311611c7d57829003601f168201915b505050505081526020016002820160009054906101000a900473ffffffffffffffffffffffffffffffffffffffff1673ffffffffffffffffffffffffffffffffffffffff1673ffffffffffffffffffffffffffffffffffffffff16815260200160038201548152505081526020019060010190611be4565b50505050905090565b68047fdb3c3f456c000081565b60c95481565b67f9ccd8a1c508000081565b6a04f46e8cf803d713c0000081565b600060cc60003373ffffffffffffffffffffffffffffffffffffffff1673ffffffffffffffffffffffffffffffffffffffff1681526020019081526020016000206004015460cc60003373ffffffffffffffffffffffffffffffffffffffff1673ffffffffffffffffffffffffffffffffffffffff16815260200190815260200160002060030154611ddb9190613a2d565b905090565b611de8611ed7565b73ffffffffffffffffffffffffffffffffffffffff16611e06611b23565b73ffffffffffffffffffffffffffffffffffffffff1614611e5c576040517f08c379a0000000000000000000000000000000000000000000000000000000008152600401611e5390613395565b60405180910390fd5b600073ffffffffffffffffffffffffffffffffffffffff168173ffffffffffffffffffffffffffffffffffffffff1603611ecb576040517f08c379a0000000000000000000000000000000000000000000000000000000008152600401611ec290614033565b60405180910390fd5b611ed48161262e565b50565b600033905090565b611ee7611218565b611f26576040517f08c379a0000000000000000000000000000000000000000000000000000000008152600401611f1d9061409f565b60405180910390fd5b6000606560006101000a81548160ff0219169083151502179055507f5db9ee0a495bf2e6ff9c91a7834c1ba4fdd244a5e8aa4e537bd38aeae4b073aa611f6a611ed7565b604051611f779190612e0c565b60405180910390a1565b6000611f8c306127c3565b15905090565b600060019054906101000a900460ff16611fe1576040517f08c379a0000000000000000000000000000000000000000000000000000000008152600401611fd890614131565b60405180910390fd5b565b600060019054906101000a900460ff16612032576040517f08c379a000000000000000000000000000000000000000000000000000000000815260040161202990614131565b60405180910390fd5b61203a6127e6565b565b600060019054906101000a900460ff1661208b576040517f08c379a000000000000000000000000000000000000000000000000000000000815260040161208290614131565b60405180910390fd5b612093612847565b565b600060019054906101000a900460ff166120e4576040517f08c379a00000000000000000000000000000000000000000000000000000000081526004016120db90614131565b60405180910390fd5b6120ec6128b3565b565b60008173ffffffffffffffffffffffffffffffffffffffff163373ffffffffffffffffffffffffffffffffffffffff160361215e576040517f08c379a0000000000000000000000000000000000000000000000000000000008152600401612155906141c3565b60405180910390fd5b8360cc60003373ffffffffffffffffffffffffffffffffffffffff1673ffffffffffffffffffffffffffffffffffffffff16815260200190815260200160002060000190805190602001906121b4929190612961565b503360cc60003373ffffffffffffffffffffffffffffffffffffffff1673ffffffffffffffffffffffffffffffffffffffff16815260200190815260200160002060010160006101000a81548173ffffffffffffffffffffffffffffffffffffffff021916908373ffffffffffffffffffffffffffffffffffffffff16021790555068047fdb3c3f456c000060cc60003373ffffffffffffffffffffffffffffffffffffffff1673ffffffffffffffffffffffffffffffffffffffff1681526020019081526020016000206003018190555061229b60c95468047fdb3c3f456c000061270a565b60c981905550600073ffffffffffffffffffffffffffffffffffffffff168273ffffffffffffffffffffffffffffffffffffffff16146125a7578260cc60008473ffffffffffffffffffffffffffffffffffffffff1673ffffffffffffffffffffffffffffffffffffffff168152602001908152602001600020600001908051906020019061232b929190612961565b508160cc60008473ffffffffffffffffffffffffffffffffffffffff1673ffffffffffffffffffffffffffffffffffffffff16815260200190815260200160002060010160006101000a81548173ffffffffffffffffffffffffffffffffffffffff021916908373ffffffffffffffffffffffffffffffffffffffff160217905550600160cc60008473ffffffffffffffffffffffffffffffffffffffff1673ffffffffffffffffffffffffffffffffffffffff16815260200190815260200160002060020160008282546124009190613a2d565b9250508190555067f9ccd8a1c508000060cc60008473ffffffffffffffffffffffffffffffffffffffff1673ffffffffffffffffffffffffffffffffffffffff16815260200190815260200160002060040160008282546124619190613a2d565b9250508190555061247c60c95467f9ccd8a1c508000061270a565b60c98190555060cc60008373ffffffffffffffffffffffffffffffffffffffff1673ffffffffffffffffffffffffffffffffffffffff16815260200190815260200160002060060160405180608001604052804281526020018681526020013373ffffffffffffffffffffffffffffffffffffffff16815260200167f9ccd8a1c50800008152509080600181540180825580915050600190039060005260206000209060040201600090919091909150600082015181600001556020820151816001019080519060200190612552929190612961565b5060408201518160020160006101000a81548173ffffffffffffffffffffffffffffffffffffffff021916908373ffffffffffffffffffffffffffffffffffffffff1602179055506060820151816003015550505b8173ffffffffffffffffffffffffffffffffffffffff163373ffffffffffffffffffffffffffffffffffffffff167ff9d7b906638797978854a7d495c841e9433cad0e98db1a5379295257588dae258668047fdb3c3f456c00008767f9ccd8a1c508000060405161261b949392919061421c565b60405180910390a3600190509392505050565b6000603360009054906101000a900473ffffffffffffffffffffffffffffffffffffffff16905081603360006101000a81548173ffffffffffffffffffffffffffffffffffffffff021916908373ffffffffffffffffffffffffffffffffffffffff1602179055508173ffffffffffffffffffffffffffffffffffffffff168173ffffffffffffffffffffffffffffffffffffffff167f8be0079c531659141344cd1fd0a4f28419497f9722a3daafe3b4186f6b6457e060405160405180910390a35050565b60008183612702919061429e565b905092915050565b600081836127189190613a2d565b905092915050565b612728611218565b15612768576040517f08c379a000000000000000000000000000000000000000000000000000000000815260040161275f906136db565b60405180910390fd5b6001606560006101000a81548160ff0219169083151502179055507f62e78cea01bee320cd4e420270b5ea74000d11b0c9f74754ebdbfc544b05a2586127ac611ed7565b6040516127b99190612e0c565b60405180910390a1565b6000808273ffffffffffffffffffffffffffffffffffffffff163b119050919050565b600060019054906101000a900460ff16612835576040517f08c379a000000000000000000000000000000000000000000000000000000000815260040161282c90614131565b60405180910390fd5b612845612840611ed7565b61262e565b565b600060019054906101000a900460ff16612896576040517f08c379a000000000000000000000000000000000000000000000000000000000815260040161288d90614131565b60405180910390fd5b6000606560006101000a81548160ff021916908315150217905550565b600060019054906101000a900460ff16612902576040517f08c379a00000000000000000000000000000000000000000000000000000000081526004016128f990614131565b60405180910390fd5b6001609781905550565b6040518060e0016040528060608152602001600073ffffffffffffffffffffffffffffffffffffffff168152602001600081526020016000815260200160008152602001600015158152602001606081525090565b82805461296d9061365e565b90600052602060002090601f01602090048101928261298f57600085556129d6565b82601f106129a857805160ff19168380011785556129d6565b828001600101855582156129d6579182015b828111156129d55782518255916020019190600101906129ba565b5b5090506129e391906129e7565b5090565b5b80821115612a005760008160009055506001016129e8565b5090565b6000604051905090565b600080fd5b600080fd5b600073ffffffffffffffffffffffffffffffffffffffff82169050919050565b6000612a4382612a18565b9050919050565b612a5381612a38565b8114612a5e57600080fd5b50565b600081359050612a7081612a4a565b92915050565b600060208284031215612a8c57612a8b612a0e565b5b6000612a9a84828501612a61565b91505092915050565b60008115159050919050565b612ab881612aa3565b82525050565b6000602082019050612ad36000830184612aaf565b92915050565b6000819050919050565b612aec81612ad9565b82525050565b6000602082019050612b076000830184612ae3565b92915050565b60008060408385031215612b2457612b23612a0e565b5b6000612b3285828601612a61565b9250506020612b4385828601612a61565b9150509250929050565b600081519050919050565b600082825260208201905092915050565b60005b83811015612b87578082015181840152602081019050612b6c565b83811115612b96576000848401525b50505050565b6000601f19601f8301169050919050565b6000612bb882612b4d565b612bc28185612b58565b9350612bd2818560208601612b69565b612bdb81612b9c565b840191505092915050565b612bef81612a38565b82525050565b612bfe81612ad9565b82525050565b612c0d81612aa3565b82525050565b600081519050919050565b600082825260208201905092915050565b6000819050602082019050919050565b6000608083016000830151612c576000860182612bf5565b5060208301518482036020860152612c6f8282612bad565b9150506040830151612c846040860182612be6565b506060830151612c976060860182612bf5565b508091505092915050565b6000612cae8383612c3f565b905092915050565b6000602082019050919050565b6000612cce82612c13565b612cd88185612c1e565b935083602082028501612cea85612c2f565b8060005b85811015612d265784840389528151612d078582612ca2565b9450612d1283612cb6565b925060208a01995050600181019050612cee565b50829750879550505050505092915050565b600060e0830160008301518482036000860152612d558282612bad565b9150506020830151612d6a6020860182612be6565b506040830151612d7d6040860182612bf5565b506060830151612d906060860182612bf5565b506080830151612da36080860182612bf5565b5060a0830151612db660a0860182612c04565b5060c083015184820360c0860152612dce8282612cc3565b9150508091505092915050565b60006020820190508181036000830152612df58184612d38565b905092915050565b612e0681612a38565b82525050565b6000602082019050612e216000830184612dfd565b92915050565b600080fd5b600080fd5b7f4e487b7100000000000000000000000000000000000000000000000000000000600052604160045260246000fd5b612e6982612b9c565b810181811067ffffffffffffffff82111715612e8857612e87612e31565b5b80604052505050565b6000612e9b612a04565b9050612ea78282612e60565b919050565b600067ffffffffffffffff821115612ec757612ec6612e31565b5b612ed082612b9c565b9050602081019050919050565b82818337600083830152505050565b6000612eff612efa84612eac565b612e91565b905082815260208101848484011115612f1b57612f1a612e2c565b5b612f26848285612edd565b509392505050565b600082601f830112612f4357612f42612e27565b5b8135612f53848260208601612eec565b91505092915050565b600080600060608486031215612f7557612f74612a0e565b5b600084013567ffffffffffffffff811115612f9357612f92612a13565b5b612f9f86828701612f2e565b935050602084013567ffffffffffffffff811115612fc057612fbf612a13565b5b612fcc86828701612f2e565b9250506040612fdd86828701612a61565b9150509250925092565b600067ffffffffffffffff82111561300257613001612e31565b5b602082029050602081019050919050565b600080fd5b600061302b61302684612fe7565b612e91565b9050808382526020820190506020840283018581111561304e5761304d613013565b5b835b8181101561307757806130638882612a61565b845260208401935050602081019050613050565b5050509392505050565b600082601f83011261309657613095612e27565b5b81356130a6848260208601613018565b91505092915050565b600067ffffffffffffffff8211156130ca576130c9612e31565b5b602082029050602081019050919050565b6130e481612ad9565b81146130ef57600080fd5b50565b600081359050613101816130db565b92915050565b600061311a613115846130af565b612e91565b9050808382526020820190506020840283018581111561313d5761313c613013565b5b835b81811015613166578061315288826130f2565b84526020840193505060208101905061313f565b5050509392505050565b600082601f83011261318557613184612e27565b5b8135613195848260208601613107565b91505092915050565b600080604083850312156131b5576131b4612a0e565b5b600083013567ffffffffffffffff8111156131d3576131d2612a13565b5b6131df85828601613081565b925050602083013567ffffffffffffffff811115613200576131ff612a13565b5b61320c85828601613170565b9150509250929050565b6000819050919050565b600061323b61323661323184612a18565b613216565b612a18565b9050919050565b600061324d82613220565b9050919050565b600061325f82613242565b9050919050565b61326f81613254565b82525050565b600060208201905061328a6000830184613266565b92915050565b600082825260208201905092915050565b60006132ac82612c13565b6132b68185613290565b9350836020820285016132c885612c2f565b8060005b8581101561330457848403895281516132e58582612ca2565b94506132f083612cb6565b925060208a019950506001810190506132cc565b50829750879550505050505092915050565b6000602082019050818103600083015261333081846132a1565b905092915050565b600082825260208201905092915050565b7f4f776e61626c653a2063616c6c6572206973206e6f7420746865206f776e6572600082015250565b600061337f602083613338565b915061338a82613349565b602082019050919050565b600060208201905081810360008301526133ae81613372565b9050919050565b6000815190506133c4816130db565b92915050565b6000602082840312156133e0576133df612a0e565b5b60006133ee848285016133b5565b91505092915050565b600060408201905061340c6000830185612dfd565b6134196020830184612ae3565b9392505050565b61342981612aa3565b811461343457600080fd5b50565b60008151905061344681613420565b92915050565b60006020828403121561346257613461612a0e565b5b600061347084828501613437565b91505092915050565b7f496e697469616c697a61626c653a20636f6e747261637420697320616c72656160008201527f647920696e697469616c697a6564000000000000000000000000000000000000602082015250565b60006134d5602e83613338565b91506134e082613479565b604082019050919050565b60006020820190508181036000830152613504816134c8565b9050919050565b7f414e4b5450726573616c653a206465706f73697420616464726573732063616e60008201527f206e6f7420626520302061646472657373000000000000000000000000000000602082015250565b6000613567603183613338565b91506135728261350b565b604082019050919050565b600060208201905081810360008301526135968161355a565b9050919050565b7f414e4b5450726573616c653a205553445420616464726573732063616e206e6f60008201527f7420626520302061646472657373000000000000000000000000000000000000602082015250565b60006135f9602e83613338565b91506136048261359d565b604082019050919050565b60006020820190508181036000830152613628816135ec565b9050919050565b7f4e487b7100000000000000000000000000000000000000000000000000000000600052602260045260246000fd5b6000600282049050600182168061367657607f821691505b6020821081036136895761368861362f565b5b50919050565b7f5061757361626c653a2070617573656400000000000000000000000000000000600082015250565b60006136c5601083613338565b91506136d08261368f565b602082019050919050565b600060208201905081810360008301526136f4816136b8565b9050919050565b7f5265656e7472616e637947756172643a207265656e7472616e742063616c6c00600082015250565b6000613731601f83613338565b915061373c826136fb565b602082019050919050565b6000602082019050818103600083015261376081613724565b9050919050565b7f414e4b5450726573616c653a20596f7520646f6e74206861766520737566666960008201527f6369656e7420616d6f756e7420746f20707572636861736520616e6b74000000602082015250565b60006137c3603d83613338565b91506137ce82613767565b604082019050919050565b600060208201905081810360008301526137f2816137b6565b9050919050565b600060408201905061380e6000830185612dfd565b61381b6020830184612dfd565b9392505050565b7f414e4b5450726573616c653a20596f752068617665206e6f7420617070726f7660008201527f65642050726553616c654465706f73697420746f207370656e6420796f75722060208201527f746f6b656e000000000000000000000000000000000000000000000000000000604082015250565b60006138a4604583613338565b91506138af82613822565b606082019050919050565b600060208201905081810360008301526138d381613897565b9050919050565b7f414e4b5450726573616c653a20557365722068617320616c726561647920646560008201527f706f7369746564205553445420746f206f627461696e20414e4b540000000000602082015250565b6000613936603b83613338565b9150613941826138da565b604082019050919050565b6000602082019050818103600083015261396581613929565b9050919050565b7f414e4b5450726573616c653a20414e4b54204c696d697420657863656564656460008201527f20666f72204465706f7369740000000000000000000000000000000000000000602082015250565b60006139c8602c83613338565b91506139d38261396c565b604082019050919050565b600060208201905081810360008301526139f7816139bb565b9050919050565b7f4e487b7100000000000000000000000000000000000000000000000000000000600052601160045260246000fd5b6000613a3882612ad9565b9150613a4383612ad9565b9250827fffffffffffffffffffffffffffffffffffffffffffffffffffffffffffffffff03821115613a7857613a776139fe565b5b828201905092915050565b7f414e4b5450726573616c653a20726566657272616c557064617465526573756c60008201527f74206973206661696c6564000000000000000000000000000000000000000000602082015250565b6000613adf602b83613338565b9150613aea82613a83565b604082019050919050565b60006020820190508181036000830152613b0e81613ad2565b9050919050565b6000606082019050613b2a6000830186612dfd565b613b376020830185612dfd565b613b446040830184612ae3565b949350505050565b7f414e4b5450726573616c653a206c6973746f664164647265737365732073697a60008201527f65206d757374206265203e203000000000000000000000000000000000000000602082015250565b6000613ba8602d83613338565b9150613bb382613b4c565b604082019050919050565b60006020820190508181036000830152613bd781613b9b565b9050919050565b7f414e4b5450726573616c653a204150506f696e74732073697a65206d7573742060008201527f6265203e20300000000000000000000000000000000000000000000000000000602082015250565b6000613c3a602683613338565b9150613c4582613bde565b604082019050919050565b60006020820190508181036000830152613c6981613c2d565b9050919050565b7f414e4b5450726573616c653a206c656e677468206f66206c6973746f6641646460008201527f72657373657320616e64204150506f696e74732073686f756c6420626520657160208201527f75616c0000000000000000000000000000000000000000000000000000000000604082015250565b6000613cf2604383613338565b9150613cfd82613c70565b606082019050919050565b60006020820190508181036000830152613d2181613ce5565b9050919050565b7f414e4b5450726573616c653a206c6973746f664164647265737365732073697a60008201527f65206d757374206265203c203135300000000000000000000000000000000000602082015250565b6000613d84602f83613338565b9150613d8f82613d28565b604082019050919050565b60006020820190508181036000830152613db381613d77565b9050919050565b7f4e487b7100000000000000000000000000000000000000000000000000000000600052603260045260246000fd5b7f414e4b5450726573616c653a2077616c6c657420616464726573732073686f7560008201527f6c64206e6f742062652030206164647265737300000000000000000000000000602082015250565b6000613e45603383613338565b9150613e5082613de9565b604082019050919050565b60006020820190508181036000830152613e7481613e38565b9050919050565b7f414e4b5450726573616c653a20415020616c726561647920686173206265656e60008201527f20636f6e76657274656400000000000000000000000000000000000000000000602082015250565b6000613ed7602a83613338565b9150613ee282613e7b565b604082019050919050565b60006020820190508181036000830152613f0681613eca565b9050919050565b7f414e4b5450726573616c653a204d617820415020457863656564656400000000600082015250565b6000613f43601c83613338565b9150613f4e82613f0d565b602082019050919050565b60006020820190508181036000830152613f7281613f36565b9050919050565b6000613f8482612ad9565b91507fffffffffffffffffffffffffffffffffffffffffffffffffffffffffffffffff8203613fb657613fb56139fe565b5b600182019050919050565b7f4f776e61626c653a206e6577206f776e657220697320746865207a65726f206160008201527f6464726573730000000000000000000000000000000000000000000000000000602082015250565b600061401d602683613338565b915061402882613fc1565b604082019050919050565b6000602082019050818103600083015261404c81614010565b9050919050565b7f5061757361626c653a206e6f7420706175736564000000000000000000000000600082015250565b6000614089601483613338565b915061409482614053565b602082019050919050565b600060208201905081810360008301526140b88161407c565b9050919050565b7f496e697469616c697a61626c653a20636f6e7472616374206973206e6f74206960008201527f6e697469616c697a696e67000000000000000000000000000000000000000000602082015250565b600061411b602b83613338565b9150614126826140bf565b604082019050919050565b6000602082019050818103600083015261414a8161410e565b9050919050565b7f414e4b5450726573616c653a20696e76697465722077616c6c6574206164647260008201527f65737320616e642073656e64657220616464726573732069732073616d650000602082015250565b60006141ad603e83613338565b91506141b882614151565b604082019050919050565b600060208201905081810360008301526141dc816141a0565b9050919050565b60006141ee82612b4d565b6141f88185613338565b9350614208818560208601612b69565b61421181612b9c565b840191505092915050565b6000608082019050818103600083015261423681876141e3565b90506142456020830186612ae3565b818103604083015261425781856141e3565b90506142666060830184612ae3565b95945050505050565b7f4e487b7100000000000000000000000000000000000000000000000000000000600052601260045260246000fd5b60006142a982612ad9565b91506142b483612ad9565b9250826142c4576142c361426f565b5b82820490509291505056fea2646970667358221220f7cebf3121a03f09381fd1a6f2bf4c65fbdcf0221dee4e306898b47ecd9ed99e64736f6c634300080d0033",
  "immutableReferences": {},
  "source": "// SPDX-License-Identifier: MIT\r\npragma solidity 0.8.13;\r\n\r\nimport \"@openzeppelin/contracts-upgradeable/security/PausableUpgradeable.sol\";\r\nimport \"@openzeppelin/contracts-upgradeable/security/ReentrancyGuardUpgradeable.sol\";\r\nimport \"@openzeppelin/contracts-upgradeable/utils/math/SafeMathUpgradeable.sol\";\r\nimport \"@openzeppelin/contracts-upgradeable/access/OwnableUpgradeable.sol\";\r\nimport \"@openzeppelin/contracts-upgradeable/token/ERC20/IERC20Upgradeable.sol\";\r\nimport \"@openzeppelin/contracts-upgradeable/token/ERC20/ERC20Upgradeable.sol\";\r\nimport \"@openzeppelin/contracts-upgradeable/token/ERC20/utils/SafeERC20Upgradeable.sol\";\r\nimport \"@openzeppelin/contracts-upgradeable/proxy/utils/Initializable.sol\";\r\n\r\ncontract ANKTPresale is Initializable, OwnableUpgradeable, PausableUpgradeable, ReentrancyGuardUpgradeable {\r\n\r\n    uint256 public constant REFERRAL_ANKT_TOKENS = 18 * (10 ** 18);\r\n    uint256 public constant PURCHASE_ANKT_TOKENS = 83 * (10 ** 18);\r\n    uint256 public constant MAX_ANKT_AP_CONVERSION_PER_PERSON = 3000 * (10 ** 18);\r\n    uint256 public constant MAX_ANKT_CAP = 5990000 * (10 ** 18);\r\n    uint256 public constant depositAmount = 5 * (10 ** 6);\r\n    uint256 public total_ankt_purchased;\r\n    IERC20Upgradeable public usdtAddress;\r\n    address public safeAddress;\r\n    \r\n    mapping(address => ReferralDetails) private userReferralInfo;\r\n    mapping(address => transaction) transactions;\r\n\r\n    struct ReferralSummary {\r\n        uint256 timestamp;\r\n        string userName;\r\n        address walletAddress;\r\n        uint256 tokensEarned;\r\n    }\r\n\r\n    struct ReferralDetails {\r\n        string userName;\r\n        address walletAddress;\r\n        uint256 totalReferralCount;\r\n        uint256 tokensPurchased;\r\n        uint256 tokensEarned;\r\n        bool apconverted;\r\n        ReferralSummary[] referralHistory;\r\n    }\r\n    \r\n    struct transaction {\r\n        address userAddress;\r\n        uint256 tokenDeposited;\r\n        uint256 createdTime;\r\n        bool doesExist;\r\n    }\r\n\r\n    event ReferralCreatedEvent(\r\n        string _inviteeUserName,\r\n        address indexed _inviteeWalletAddress,\r\n        uint256 _inviteeTokensPurchased,\r\n        string _inviterUserName,\r\n        address indexed _inviterWalletAddress,\r\n        uint256 _inviterTokensEarned\r\n    );\r\n\r\n    event APconvertedEvent(\r\n        address indexed _walletAddress,\r\n        uint256 _tokensEarned\r\n    );\r\n\r\n    function pause() public onlyOwner {\r\n        _pause();\r\n    }\r\n\r\n    function unpause() public onlyOwner {\r\n        _unpause();\r\n    }\r\n\r\n    function initialize(address safedepositAddress_, address usdtAddress_) public initializer {\r\n        __Context_init_unchained();\r\n        __Ownable_init();\r\n        __Pausable_init();\r\n        __ReentrancyGuard_init();\r\n        require(safedepositAddress_ != address(0), \"ANKTPresale: deposit address can not be 0 address\");\r\n        require(usdtAddress_ != address(0), \"ANKTPresale: USDT address can not be 0 address\");\r\n        safeAddress = safedepositAddress_;\r\n        usdtAddress = IERC20Upgradeable(usdtAddress_);\r\n    }\r\n\r\n    function tokenDeposit(\r\n        string memory _userName,\r\n        string memory _inviterUserName,\r\n        address _inviterWalletAddress\r\n    ) public whenNotPaused nonReentrant returns (bool) {\r\n        require(\r\n            usdtAddress.balanceOf(msg.sender) >= depositAmount,\r\n            \"ANKTPresale: You dont have sufficient amount to purchase ankt\"\r\n        );\r\n        require(\r\n            usdtAddress.allowance(msg.sender, address(this)) >= depositAmount,\r\n            \"ANKTPresale: You have not approved PreSaleDeposit to spend your token\"\r\n        );\r\n        require(\r\n            !transactions[msg.sender].doesExist,\r\n            \"ANKTPresale: User has already deposited USDT to obtain ANKT\"\r\n        );\r\n        require(\r\n            (total_ankt_purchased) <= MAX_ANKT_CAP,\r\n            \"ANKTPresale: ANKT Limit exceeded for Deposit\"\r\n        );\r\n        transactions[msg.sender].userAddress = msg.sender;\r\n        transactions[msg.sender].tokenDeposited += depositAmount;\r\n        transactions[msg.sender].createdTime = block.timestamp;\r\n        transactions[msg.sender].doesExist = true;\r\n        bool referralUpdateResult = updateUserReferral(_userName, _inviterUserName, _inviterWalletAddress);\r\n        require(referralUpdateResult, \"ANKTPresale: referralUpdateResult is failed\");\r\n        usdtAddress.transferFrom(msg.sender, address(this), depositAmount);\r\n        return (transactions[msg.sender].doesExist);\r\n    }\r\n\r\n    function withdraw() external onlyOwner {\r\n        usdtAddress.transfer(safeAddress, usdtAddress.balanceOf(address(this)));\r\n    }\r\n\r\n    function getTransactions(address userAddress) external view returns (bool) {\r\n        return (transactions[userAddress].doesExist);\r\n    }\r\n\r\n    function contractBalance() external view returns (uint256) {\r\n        return (usdtAddress.balanceOf(address(this)));\r\n    }\r\n\r\n    function updateUserReferral(\r\n        string memory _userName,\r\n        string memory _inviterUserName,\r\n        address _inviterWalletAddress\r\n    ) internal returns (bool) {\r\n        require(msg.sender != _inviterWalletAddress, \"ANKTPresale: inviter wallet address and sender address is same\");\r\n        userReferralInfo[msg.sender].userName = _userName;\r\n        userReferralInfo[msg.sender].walletAddress = msg.sender;\r\n        userReferralInfo[msg.sender].tokensPurchased = PURCHASE_ANKT_TOKENS;\r\n        total_ankt_purchased = SafeMathUpgradeable.add(total_ankt_purchased, PURCHASE_ANKT_TOKENS);\r\n        if (_inviterWalletAddress != address(0)) {\r\n            userReferralInfo[_inviterWalletAddress].userName = _inviterUserName;\r\n            userReferralInfo[_inviterWalletAddress].walletAddress = _inviterWalletAddress;\r\n            userReferralInfo[_inviterWalletAddress].totalReferralCount += 1;\r\n            userReferralInfo[_inviterWalletAddress].tokensEarned += REFERRAL_ANKT_TOKENS;\r\n            total_ankt_purchased = SafeMathUpgradeable.add(total_ankt_purchased,REFERRAL_ANKT_TOKENS);\r\n            userReferralInfo[_inviterWalletAddress].referralHistory.push(\r\n                ReferralSummary(\r\n                    block.timestamp,\r\n                    _userName,\r\n                    msg.sender,\r\n                    REFERRAL_ANKT_TOKENS\r\n                )\r\n            );\r\n        }\r\n        emit ReferralCreatedEvent(_userName, msg.sender, PURCHASE_ANKT_TOKENS, _inviterUserName, _inviterWalletAddress, REFERRAL_ANKT_TOKENS);\r\n        return true;\r\n    }\r\n\r\n    function convertAPtoANKT(address[] memory listofAddresses, uint256[] memory APPoints) external onlyOwner returns (bool)  {\r\n        require(listofAddresses.length > 0, \"ANKTPresale: listofAddresses size must be > 0\");\r\n        require(APPoints.length > 0, \"ANKTPresale: APPoints size must be > 0\");\r\n        require(listofAddresses.length == APPoints.length, \"ANKTPresale: length of listofAddresses and APPoints should be equal\");\r\n        require(listofAddresses.length < 150, \"ANKTPresale: listofAddresses size must be < 150\");\r\n        for(uint i=0; i< listofAddresses.length; i++){\r\n            for(uint j=0; j<APPoints.length; j++){\r\n                if(i==j){\r\n                    require(listofAddresses[i] != address(0), \"ANKTPresale: wallet address should not be 0 address\");\r\n                    require(!userReferralInfo[listofAddresses[i]].apconverted, \"ANKTPresale: AP already has been converted\");\r\n                    require(APPoints[j] <= MAX_ANKT_AP_CONVERSION_PER_PERSON, \"ANKTPresale: Max AP Exceeded\");\r\n                    uint256 ankt_tokens = SafeMathUpgradeable.div(APPoints[j], 4);\r\n                    userReferralInfo[listofAddresses[i]].tokensEarned += ankt_tokens;\r\n                    userReferralInfo[listofAddresses[i]].walletAddress = listofAddresses[i];\r\n                    userReferralInfo[listofAddresses[i]].apconverted = true;\r\n                    userReferralInfo[listofAddresses[i]].referralHistory.push(\r\n                            ReferralSummary(\r\n                                block.timestamp,\r\n                                \"APtoANKT\",\r\n                                listofAddresses[i],\r\n                                ankt_tokens\r\n                            )\r\n                    );\r\n                    total_ankt_purchased = SafeMathUpgradeable.add(total_ankt_purchased,ankt_tokens);\r\n                    emit APconvertedEvent(listofAddresses[i], ankt_tokens);\r\n                    break;\r\n                }\r\n            }\r\n        }\r\n        return true;\r\n    }\r\n\r\n    function getUserReferralSummary()\r\n        external\r\n        view\r\n        returns (ReferralSummary[] memory summary) {\r\n            return userReferralInfo[msg.sender].referralHistory;\r\n    }\r\n\r\n    function getUserANKTBalance() \r\n        external\r\n        view \r\n        returns (uint256) {\r\n            return userReferralInfo[msg.sender].tokensPurchased + userReferralInfo[msg.sender].tokensEarned;\r\n    }\r\n\r\n    function getUserReferralDetails()\r\n        external\r\n        view\r\n        returns (ReferralDetails memory refDetails) {\r\n            return userReferralInfo[msg.sender];\r\n    }\r\n}",
  "sourcePath": "C:\\Users\\Gopib\\ANKTPresale-MainNet-Final\\contracts\\ANKTPresale.sol",
  "compiler": {
    "name": "solc",
    "version": "0.8.13+commit.abaa5c0e.Emscripten.clang"
  },
  "schemaVersion": "3.4.7",
  "updatedAt": "2022-04-11T21:28:34.225Z",
  "networkType": "ethereum",
  "devdoc": {
    "kind": "dev",
    "methods": {
      "owner()": {
        "details": "Returns the address of the current owner."
      },
      "paused()": {
        "details": "Returns true if the contract is paused, and false otherwise."
      },
      "renounceOwnership()": {
        "details": "Leaves the contract without owner. It will not be possible to call `onlyOwner` functions anymore. Can only be called by the current owner. NOTE: Renouncing ownership will leave the contract without an owner, thereby removing any functionality that is only available to the owner."
      },
      "transferOwnership(address)": {
        "details": "Transfers ownership of the contract to a new account (`newOwner`). Can only be called by the current owner."
      }
    },
    "version": 1
  },
  "userdoc": {
    "kind": "user",
    "methods": {},
    "version": 1
  }
}